:100000000C9434000C9451000C9451000C94510049
:100010000C9451000C9451000C9451000C9451001C
:100020000C9451000C9451000C9451000C9451000C
:100030000C9451000C9451000C94E9020C94510062
:100040000C9451000C9464020C9451000C945100D7
:100050000C9451000C9451000C9451000C945100DC
:100060000C9451000C94510011241FBECFEFD8E026
:10007000DEBFCDBF11E0A0E0B1E0EAE7F6E002C0EC
:1000800005900D92AC33B107D9F721E0ACE3B1E0B4
:1000900001C01D92A138B207E1F70E94BB000C9489
:1000A0003B030C940000009761F4089500000000E9
:1000B00000000000000000002150C1F701970097E8
:1000C00011F02AE5F3CF08951F93CF93DF93282FE4
:1000D00030E0F901EF59FE4F8081F901E75AFE4FF8
:1000E0005081D901A758BE4F1C91408190E0851BDB
:1000F0009109CC96ECE3F0E0BF010E940403EC010F
:10010000812F90E0841B9109CC96BF010E940403CB
:100110008C179D0764F5F901E75AFE4F8081F901BC
:10012000EF59FE4F50811081F901E758FE4F408191
:1001300090E0851B9109CC96ECE3F0E0BF010E94B2
:100140000403EC01812F90E0841B9109CC96BF0140
:100150000E9404038C179D072CF4F901E759FE4F08
:10016000108205C0F901E759FE4F81E08083DF91DD
:10017000CF911F910895CF93DF9300D000D01F92AD
:10018000CDB7DEB78CE284B986E087B984E08AB95E
:1001900080ED8CBD789483E084BD8BE085BD8EE2DC
:1001A00087BD82E080936E008093810080E480931D
:1001B0007C0086E880937A0010927B008FE3809326
:1001C0007E0080E090E0FC01E759FE4F108201962E
:1001D00087309105C1F780E090E02AE0FC01E75804
:1001E000FE4F2083019687309105C1F780E090E0B3
:1001F0002BE3FC01E758FE4F3081422F431BFC01EB
:10020000E75AFE4F408301968730910591F780E0D1
:1002100090E0FC01E75AFE4F2081FC01EF59FE4FB0
:100220002083019687309105A1F780E090E0FC01E2
:10023000EF59FE4FE081F0E0E050FF4F2081FC01DC
:10024000EF58FE4F208301968730910581F720E01B
:100250000F2EF4E86F2E712CF02D0F2EFCE72F2EB1
:10026000312CF02D0FC0E22FF0E0EE0FFF1FEE0F4C
:10027000FF1FE45CFE4F8FEF9FEF9183808393839A
:1002800082832F5F273078F3429AD30111961C9214
:100290001E92F301808191818A3F9105D0F34298AB
:1002A000F5E0F9830F2EF8E5AF2EF1E0BF2EF02D2B
:1002B0000F2EF8E7CF2ED12CF02D0F2EF3E04F2E7E
:1002C000F02D55245A9488248A948BC0419AD301E6
:1002D00011961C921E92F301808191818A3F9105B3
:1002E000D0F34198118210825A98942C052D182D24
:1002F000E0E0F0E040E050E0252D382DA0E0B0E057
:1003000060E070E0FD83EC83F30180819181833CA8
:100310009105D0F3118210824A9AF1018081807F89
:100320008083EAE7F0E0808180648083EAE7F0E0A0
:10033000808186FDFBCFF60180819181680F791F56
:10034000A817B90708F4DC018217930708F49C0189
:10035000F101808183608083EAE7F0E0808180643E
:100360008083EAE7F0E0808186FDFBCFF6018081A3
:100370009181480F591FEC81FD81E817F90710F4AE
:100380009D838C838017910708F48C019A9409F05F
:10039000BBCFEC81FD816A1B7B0B621B730B97014A
:1003A000D7018D919C9111976817790710F46D937F
:1003B0007C934E1B5F0B401B510BF9018281938193
:1003C0004817590710F453834283F4E0EF0EF11CF1
:1003D000EA14FB0409F07ACF498141504983442350
:1003E00039F08CE391E08A83DC01BB837C016ECF22
:1003F000EA80FB8000E010E00F2EFCE3AF2EF02D32
:10040000B02EA801F701228133812530310520F07B
:100410002450310933832283C280D3809601A7EE12
:10042000BAED0E941803C81AD90A96013695279585
:10043000280F391F0024220F331F001C220F331FE7
:10044000001C232F302D220FDA01A758BE4F2C930A
:10045000208131812530310520F02450310931834C
:1004600020830190F081E02D9F01A7EEBAED0E945C
:100470001803E81BF90B9F0136952795280F391FA4
:100480000024220F331F001C220F331F001C232FB8
:10049000302D220F19F0FA2DF21B2F2FFA01E75AF7
:1004A000FE4F20838B2D0E9464000F5F1F4F44E09E
:1004B000E40EF11C0730110509F0A2CF8CED95E098
:1004C0000E94530020E0DECE1F920F920FB60F92D3
:1004D00011242F933F938F939F93EF93FF938091DA
:1004E000580190915801915090935801811102C088
:1004F0002A9A07C0E0915801F0E0EF58FE4F908132
:100500009EBD90E0FC01E759FE4F2081222359F166
:10051000FC01EF59FE4F3081FC01E758FE4F20816E
:10052000321305C0FC01E759FE4F108247C0FC01A1
:10053000EF59FE4F20812F5F208320812C3330F034
:10054000FC01EF59FE4F20812C532083FC01EF5911
:10055000FE4FE081F0E0E050FF4F2081FC01EF58BA
:10056000FE4F20832BC0FC01EF59FE4F3081FC0170
:10057000E75AFE4F2081321306C0FC01E759FE4FB7
:1005800021E020831BC0FC01EF59FE4F2081215048
:10059000208320812C3330F0FC01EF59FE4F208165
:1005A000245C2083FC01EF59FE4FE081F0E0E05035
:1005B000FF4F2081FC01EF58FE4F2083FF91EF9108
:1005C0009F918F913F912F910F900FBE0F901F9091
:1005D00018951F920F920FB60F9211248F93EF93DD
:1005E000FF932A9886E080935801E0915801F0E04B
:1005F000EF58FE4F80818EBDFF91EF918F910F904C
:100600000FBE0F901F90189597FB072E16F40094BD
:1006100007D077FD09D00E94270307FC05D03EF4E0
:10062000909581959F4F0895709561957F4F08959E
:10063000A29FB001B39FC001A39F700D811D112423
:10064000911DB29F700D811D1124911D0895AA1B4B
:10065000BB1B51E107C0AA1FBB1FA617B70710F0AD
:10066000A61BB70B881F991F5A95A9F780959095DF
:0A067000BC01CD010895F894FFCFFE
:10067A0040410103020604050103020604050103C1
:10068A00020604050103020604050103020A080919
:10069A00010302060405010302060405010302120E
:0C06AA0010110103022220210103024272
:00000001FF
